{
  "contractName": "ToDo",
  "abi": [
    {
      "anonymous": false,
      "inputs": [
        {
          "indexed": false,
          "name": "lastTaskId",
          "type": "uint256"
        },
        {
          "indexed": false,
          "name": "content",
          "type": "string"
        },
        {
          "indexed": false,
          "name": "author",
          "type": "string"
        },
        {
          "indexed": false,
          "name": "deadLine",
          "type": "uint256"
        },
        {
          "indexed": false,
          "name": "done",
          "type": "bool"
        }
      ],
      "name": "TaskCreated",
      "type": "event",
      "signature": "0xaa0d14f4d7063208a693384c8210dcb17d0157cd123937224f14fb63e22c16ec"
    },
    {
      "constant": true,
      "inputs": [],
      "name": "getTaskIds",
      "outputs": [
        {
          "name": "",
          "type": "uint256[]"
        }
      ],
      "payable": false,
      "stateMutability": "view",
      "type": "function",
      "signature": "0xbcd14805"
    },
    {
      "constant": false,
      "inputs": [
        {
          "name": "_content",
          "type": "string"
        },
        {
          "name": "_author",
          "type": "string"
        },
        {
          "name": "_deadLine",
          "type": "uint256"
        }
      ],
      "name": "addTask",
      "outputs": [],
      "payable": false,
      "stateMutability": "nonpayable",
      "type": "function",
      "signature": "0x7cbc9ae9"
    },
    {
      "constant": true,
      "inputs": [
        {
          "name": "_id",
          "type": "uint256"
        }
      ],
      "name": "viewTast",
      "outputs": [
        {
          "name": "",
          "type": "uint256"
        },
        {
          "name": "",
          "type": "string"
        },
        {
          "name": "",
          "type": "string"
        },
        {
          "name": "",
          "type": "uint256"
        },
        {
          "name": "",
          "type": "bool"
        }
      ],
      "payable": false,
      "stateMutability": "view",
      "type": "function",
      "signature": "0x9e2674f8"
    },
    {
      "constant": false,
      "inputs": [
        {
          "name": "_id",
          "type": "uint256"
        }
      ],
      "name": "finish",
      "outputs": [],
      "payable": false,
      "stateMutability": "nonpayable",
      "type": "function",
      "signature": "0xd353a1cb"
    }
  ],
  "bytecode": "0x6080604052600060025534801561001557600080fd5b506108f9806100256000396000f300608060405260043610610062576000357c0100000000000000000000000000000000000000000000000000000000900463ffffffff1680637cbc9ae9146100675780639e2674f814610120578063bcd148051461024b578063d353a1cb146102b7575b600080fd5b34801561007357600080fd5b5061011e600480360381019080803590602001908201803590602001908080601f0160208091040260200160405190810160405280939291908181526020018383808284378201915050505050509192919290803590602001908201803590602001908080601f0160208091040260200160405190810160405280939291908181526020018383808284378201915050505050509192919290803590602001909291905050506102e4565b005b34801561012c57600080fd5b5061014b60048036038101908080359060200190929190505050610503565b60405180868152602001806020018060200185815260200184151515158152602001838103835287818151815260200191508051906020019080838360005b838110156101a557808201518184015260208101905061018a565b50505050905090810190601f1680156101d25780820380516001836020036101000a031916815260200191505b50838103825286818151815260200191508051906020019080838360005b8381101561020b5780820151818401526020810190506101f0565b50505050905090810190601f1680156102385780820380516001836020036101000a031916815260200191505b5097505050505050505060405180910390f35b34801561025757600080fd5b506102606106df565b6040518080602001828103825283818151815260200191508051906020019060200280838360005b838110156102a3578082015181840152602081019050610288565b505050509050019250505060405180910390f35b3480156102c357600080fd5b506102e260048036038101908080359060200190929190505050610737565b005b60026000815480929190600101919050555060a060405190810160405280600254815260200184815260200183815260200182815260200160001515815250600080600254815260200190815260200160002060008201518160000155602082015181600101908051906020019061035d9291906107e0565b50604082015181600201908051906020019061037a9291906107e0565b506060820151816003015560808201518160040160006101000a81548160ff021916908315150217905550905050600160025490806001815401808255809150509060018203906000526020600020016000909192909190915055507faa0d14f4d7063208a693384c8210dcb17d0157cd123937224f14fb63e22c16ec600254848484600060405180868152602001806020018060200185815260200184151515158152602001838103835287818151815260200191508051906020019080838360005b8381101561045957808201518184015260208101905061043e565b50505050905090810190601f1680156104865780820380516001836020036101000a031916815260200191505b50838103825286818151815260200191508051906020019080838360005b838110156104bf5780820151818401526020810190506104a4565b50505050905090810190601f1680156104ec5780820380516001836020036101000a031916815260200191505b5097505050505050505060405180910390a1505050565b600060608060008085600080600083815260200190815260200160002060000154141561052f57600080fd5b866000808981526020019081526020016000206001016000808a81526020019081526020016000206002016000808b8152602001908152602001600020600301546000808c815260200190815260200160002060040160009054906101000a900460ff16838054600181600116156101000203166002900480601f0160208091040260200160405190810160405280929190818152602001828054600181600116156101000203166002900480156106285780601f106105fd57610100808354040283529160200191610628565b820191906000526020600020905b81548152906001019060200180831161060b57829003601f168201915b50505050509350828054600181600116156101000203166002900480601f0160208091040260200160405190810160405280929190818152602001828054600181600116156101000203166002900480156106c45780601f10610699576101008083540402835291602001916106c4565b820191906000526020600020905b8154815290600101906020018083116106a757829003601f168201915b50505050509250955095509550955095505091939590929450565b6060600180548060200260200160405190810160405280929190818152602001828054801561072d57602002820191906000526020600020905b815481526020019060010190808311610719575b5050505050905090565b600160008083815260200190815260200160002060040160006101000a81548160ff0219169083151502179055506000808281526020019081526020016000206000808201600090556001820160006107909190610860565b6002820160006107a09190610860565b60038201600090556004820160006101000a81549060ff0219169055505060018082038154811015156107cf57fe5b906000526020600020016000905550565b828054600181600116156101000203166002900490600052602060002090601f016020900481019282601f1061082157805160ff191683800117855561084f565b8280016001018555821561084f579182015b8281111561084e578251825591602001919060010190610833565b5b50905061085c91906108a8565b5090565b50805460018160011615610100020316600290046000825580601f1061088657506108a5565b601f0160209004906000526020600020908101906108a491906108a8565b5b50565b6108ca91905b808211156108c65760008160009055506001016108ae565b5090565b905600a165627a7a72305820c06f65a75462e9beaa770d4f200384496d163d6a21f33837bec147caa97b17a00029",
  "source": "pragma solidity ^0.4.23;\n\ncontract ToDo {\n    struct Task {\n        uint id;\n        string content;\n        string author;\n        uint deadLine;\n        bool done;\n    }\n\n    mapping (uint => Task) taskList;\n\n    uint[] TaskIds;\n    uint lastTaskId = 0;\n\n    function getTaskIds() public view returns (uint[]) {\n        return TaskIds;\n    }\n\n    event TaskCreated(uint lastTaskId, string content, string author, uint deadLine, bool done);\n\n    function addTask(string _content, string _author, uint _deadLine) public {\n        lastTaskId ++;\n        // push new Task to taskList and default the status is \"false\"\n        taskList[lastTaskId] = Task(lastTaskId, _content, _author, _deadLine, false);\n        TaskIds.push(lastTaskId);\n        emit TaskCreated(lastTaskId, _content, _author, _deadLine, false);\n    } \n    \n        \n    modifier taskExists(uint id) {\n        if(taskList[id].id == 0) {\n         revert(); //this will abort execution\n        }\n        _;\n    }\n\n    function viewTast(uint _id)\n    taskExists(_id)\n    public view \n    returns (uint, string, string, uint, bool) {\n        return(_id, taskList[_id].content, taskList[_id].author, taskList[_id].deadLine, taskList[_id].done);\n    }\n    \n    function finish(uint _id) public {\n        taskList[_id].done = true;\n        delete taskList[_id];\n        delete TaskIds[_id-1];\n    }\n}",
  "sourcePath": "/home/dien/Desktop/Intern_Sun/ToDoList/contracts/ToDo.sol",
  "compiler": {
    "name": "solc",
    "version": "0.4.23+commit.124ca40d.Emscripten.clang"
  },
  "schemaVersion": "3.0.3",
  "updatedAt": "2019-03-29T13:56:26.228Z",
  "devdoc": {
    "methods": {}
  },
  "userdoc": {
    "methods": {}
  }
}